{
  "_format": "hh-sol-artifact-1",
  "contractName": "Bridge",
  "sourceName": "contracts/Bridge.sol",
  "abi": [
    {
      "inputs": [
        {
          "internalType": "address",
          "name": "_admin",
          "type": "address"
        },
        {
          "internalType": "address",
          "name": "_token",
          "type": "address"
        }
      ],
      "stateMutability": "nonpayable",
      "type": "constructor"
    },
    {
      "anonymous": false,
      "inputs": [
        {
          "indexed": true,
          "internalType": "address",
          "name": "to",
          "type": "address"
        },
        {
          "indexed": false,
          "internalType": "uint256",
          "name": "amount",
          "type": "uint256"
        }
      ],
      "name": "SendTokens",
      "type": "event"
    },
    {
      "inputs": [],
      "name": "admin",
      "outputs": [
        {
          "internalType": "address",
          "name": "",
          "type": "address"
        }
      ],
      "stateMutability": "view",
      "type": "function"
    },
    {
      "inputs": [
        {
          "internalType": "address",
          "name": "_to",
          "type": "address"
        },
        {
          "internalType": "uint256",
          "name": "_amount",
          "type": "uint256"
        }
      ],
      "name": "sendTokens",
      "outputs": [],
      "stateMutability": "nonpayable",
      "type": "function"
    },
    {
      "inputs": [],
      "name": "token",
      "outputs": [
        {
          "internalType": "contract IERC20",
          "name": "",
          "type": "address"
        }
      ],
      "stateMutability": "view",
      "type": "function"
    }
  ],
  "bytecode": "0x608060405234801561000f575f80fd5b5060405161090338038061090383398181016040528101906100319190610115565b815f806101000a81548173ffffffffffffffffffffffffffffffffffffffff021916908373ffffffffffffffffffffffffffffffffffffffff1602179055508060015f6101000a81548173ffffffffffffffffffffffffffffffffffffffff021916908373ffffffffffffffffffffffffffffffffffffffff1602179055505050610153565b5f80fd5b5f73ffffffffffffffffffffffffffffffffffffffff82169050919050565b5f6100e4826100bb565b9050919050565b6100f4816100da565b81146100fe575f80fd5b50565b5f8151905061010f816100eb565b92915050565b5f806040838503121561012b5761012a6100b7565b5b5f61013885828601610101565b925050602061014985828601610101565b9150509250929050565b6107a3806101605f395ff3fe608060405234801561000f575f80fd5b506004361061003f575f3560e01c806305ab421d14610043578063f851a4401461005f578063fc0c546a1461007d575b5f80fd5b61005d6004803603810190610058919061046a565b61009b565b005b610067610391565b60405161007491906104b7565b60405180910390f35b6100856103b4565b604051610092919061052b565b60405180910390f35b5f8054906101000a900473ffffffffffffffffffffffffffffffffffffffff1673ffffffffffffffffffffffffffffffffffffffff163373ffffffffffffffffffffffffffffffffffffffff1614610128576040517f08c379a000000000000000000000000000000000000000000000000000000000815260040161011f9061059e565b60405180910390fd5b8060015f9054906101000a900473ffffffffffffffffffffffffffffffffffffffff1673ffffffffffffffffffffffffffffffffffffffff166370a08231306040518263ffffffff1660e01b815260040161018391906104b7565b602060405180830381865afa15801561019e573d5f803e3d5ffd5b505050506040513d601f19601f820116820180604052508101906101c291906105d0565b1015610203576040517f08c379a00000000000000000000000000000000000000000000000000000000081526004016101fa9061066b565b60405180910390fd5b60015f9054906101000a900473ffffffffffffffffffffffffffffffffffffffff1673ffffffffffffffffffffffffffffffffffffffff1663095ea7b383836040518363ffffffff1660e01b815260040161025f929190610698565b6020604051808303815f875af115801561027b573d5f803e3d5ffd5b505050506040513d601f19601f8201168201806040525081019061029f91906106f4565b5060015f9054906101000a900473ffffffffffffffffffffffffffffffffffffffff1673ffffffffffffffffffffffffffffffffffffffff166323b872dd3084846040518463ffffffff1660e01b81526004016102fe9392919061071f565b6020604051808303815f875af115801561031a573d5f803e3d5ffd5b505050506040513d601f19601f8201168201806040525081019061033e91906106f4565b508173ffffffffffffffffffffffffffffffffffffffff167f09bd3894cb7ab22415416dac0fecc519855a4b0842f1c9115e562ef557ab577b826040516103859190610754565b60405180910390a25050565b5f8054906101000a900473ffffffffffffffffffffffffffffffffffffffff1681565b60015f9054906101000a900473ffffffffffffffffffffffffffffffffffffffff1681565b5f80fd5b5f73ffffffffffffffffffffffffffffffffffffffff82169050919050565b5f610406826103dd565b9050919050565b610416816103fc565b8114610420575f80fd5b50565b5f813590506104318161040d565b92915050565b5f819050919050565b61044981610437565b8114610453575f80fd5b50565b5f8135905061046481610440565b92915050565b5f80604083850312156104805761047f6103d9565b5b5f61048d85828601610423565b925050602061049e85828601610456565b9150509250929050565b6104b1816103fc565b82525050565b5f6020820190506104ca5f8301846104a8565b92915050565b5f819050919050565b5f6104f36104ee6104e9846103dd565b6104d0565b6103dd565b9050919050565b5f610504826104d9565b9050919050565b5f610515826104fa565b9050919050565b6105258161050b565b82525050565b5f60208201905061053e5f83018461051c565b92915050565b5f82825260208201905092915050565b7f596f7520617265206e6f7420616e2061646d696e2100000000000000000000005f82015250565b5f610588601583610544565b915061059382610554565b602082019050919050565b5f6020820190508181035f8301526105b58161057c565b9050919050565b5f815190506105ca81610440565b92915050565b5f602082840312156105e5576105e46103d9565b5b5f6105f2848285016105bc565b91505092915050565b7f42616c616e6365206f662074686520736d61727420636f6e74726163742069735f8201527f20746f6f206c6f77210000000000000000000000000000000000000000000000602082015250565b5f610655602983610544565b9150610660826105fb565b604082019050919050565b5f6020820190508181035f83015261068281610649565b9050919050565b61069281610437565b82525050565b5f6040820190506106ab5f8301856104a8565b6106b86020830184610689565b9392505050565b5f8115159050919050565b6106d3816106bf565b81146106dd575f80fd5b50565b5f815190506106ee816106ca565b92915050565b5f60208284031215610709576107086103d9565b5b5f610716848285016106e0565b91505092915050565b5f6060820190506107325f8301866104a8565b61073f60208301856104a8565b61074c6040830184610689565b949350505050565b5f6020820190506107675f830184610689565b9291505056fea264697066735822122079fae9f506ac85f9f41eda2c17dddedfa8b956500e37c524d7fda06aafbe7ef264736f6c63430008150033",
  "linkReferences": {},
  "deployedLinkReferences": {}
}