{
    "_format": "hh-sol-artifact-1",
    "contractName": "SourceToken",
    "sourceName": "contracts/SourceToken/SourceToken.sol",
    "abi": [
        {
            "anonymous": false,
            "inputs": [
                {
                    "indexed": true,
                    "internalType": "address",
                    "name": "account",
                    "type": "address"
                },
                {
                    "indexed": false,
                    "internalType": "bool",
                    "name": "blocked",
                    "type": "bool"
                }
            ],
            "name": "AddressBlockadeSet",
            "type": "event"
        },
        {
            "anonymous": false,
            "inputs": [
                {
                    "indexed": true,
                    "internalType": "address",
                    "name": "owner",
                    "type": "address"
                },
                {
                    "indexed": true,
                    "internalType": "address",
                    "name": "spender",
                    "type": "address"
                },
                {
                    "indexed": false,
                    "internalType": "uint256",
                    "name": "value",
                    "type": "uint256"
                }
            ],
            "name": "Approval",
            "type": "event"
        },
        {
            "anonymous": false,
            "inputs": [
                {
                    "indexed": true,
                    "internalType": "address",
                    "name": "to",
                    "type": "address"
                },
                {
                    "indexed": false,
                    "internalType": "uint256",
                    "name": "amount",
                    "type": "uint256"
                }
            ],
            "name": "Burn",
            "type": "event"
        },
        {
            "anonymous": false,
            "inputs": [
                {
                    "indexed": false,
                    "internalType": "uint8",
                    "name": "version",
                    "type": "uint8"
                }
            ],
            "name": "Initialized",
            "type": "event"
        },
        {
            "anonymous": false,
            "inputs": [
                {
                    "indexed": true,
                    "internalType": "address",
                    "name": "creator",
                    "type": "address"
                },
                {
                    "indexed": false,
                    "internalType": "uint256",
                    "name": "index",
                    "type": "uint256"
                },
                {
                    "indexed": false,
                    "internalType": "uint256",
                    "name": "amount",
                    "type": "uint256"
                }
            ],
            "name": "LockBurn",
            "type": "event"
        },
        {
            "anonymous": false,
            "inputs": [
                {
                    "indexed": true,
                    "internalType": "address",
                    "name": "creator",
                    "type": "address"
                },
                {
                    "indexed": false,
                    "internalType": "uint256",
                    "name": "index",
                    "type": "uint256"
                },
                {
                    "indexed": false,
                    "internalType": "uint256",
                    "name": "amount",
                    "type": "uint256"
                }
            ],
            "name": "LockCreate",
            "type": "event"
        },
        {
            "anonymous": false,
            "inputs": [
                {
                    "indexed": true,
                    "internalType": "address",
                    "name": "creator",
                    "type": "address"
                },
                {
                    "indexed": false,
                    "internalType": "uint256",
                    "name": "index",
                    "type": "uint256"
                },
                {
                    "indexed": false,
                    "internalType": "uint256",
                    "name": "amount",
                    "type": "uint256"
                }
            ],
            "name": "LockRelease",
            "type": "event"
        },
        {
            "anonymous": false,
            "inputs": [
                {
                    "indexed": true,
                    "internalType": "address",
                    "name": "to",
                    "type": "address"
                },
                {
                    "indexed": false,
                    "internalType": "uint256",
                    "name": "amount",
                    "type": "uint256"
                }
            ],
            "name": "Mint",
            "type": "event"
        },
        {
            "anonymous": false,
            "inputs": [
                {
                    "indexed": true,
                    "internalType": "address",
                    "name": "previousOwner",
                    "type": "address"
                },
                {
                    "indexed": true,
                    "internalType": "address",
                    "name": "newOwner",
                    "type": "address"
                }
            ],
            "name": "OwnershipTransferred",
            "type": "event"
        },
        {
            "anonymous": false,
            "inputs": [
                {
                    "indexed": false,
                    "internalType": "address",
                    "name": "account",
                    "type": "address"
                }
            ],
            "name": "Paused",
            "type": "event"
        },
        {
            "anonymous": false,
            "inputs": [
                {
                    "indexed": true,
                    "internalType": "address",
                    "name": "from",
                    "type": "address"
                },
                {
                    "indexed": true,
                    "internalType": "address",
                    "name": "to",
                    "type": "address"
                },
                {
                    "indexed": false,
                    "internalType": "uint256",
                    "name": "value",
                    "type": "uint256"
                }
            ],
            "name": "Transfer",
            "type": "event"
        },
        {
            "anonymous": false,
            "inputs": [
                {
                    "indexed": false,
                    "internalType": "address",
                    "name": "account",
                    "type": "address"
                }
            ],
            "name": "Unpaused",
            "type": "event"
        },
        {
            "inputs": [
                {
                    "internalType": "address",
                    "name": "owner",
                    "type": "address"
                },
                {
                    "internalType": "address",
                    "name": "spender",
                    "type": "address"
                }
            ],
            "name": "allowance",
            "outputs": [
                {
                    "internalType": "uint256",
                    "name": "",
                    "type": "uint256"
                }
            ],
            "stateMutability": "view",
            "type": "function"
        },
        {
            "inputs": [
                {
                    "internalType": "address",
                    "name": "spender",
                    "type": "address"
                },
                {
                    "internalType": "uint256",
                    "name": "amount",
                    "type": "uint256"
                }
            ],
            "name": "approve",
            "outputs": [
                {
                    "internalType": "bool",
                    "name": "",
                    "type": "bool"
                }
            ],
            "stateMutability": "nonpayable",
            "type": "function"
        },
        {
            "inputs": [
                {
                    "internalType": "address",
                    "name": "account",
                    "type": "address"
                }
            ],
            "name": "balanceOf",
            "outputs": [
                {
                    "internalType": "uint256",
                    "name": "",
                    "type": "uint256"
                }
            ],
            "stateMutability": "view",
            "type": "function"
        },
        {
            "inputs": [
                {
                    "internalType": "address",
                    "name": "lockCreator",
                    "type": "address"
                },
                {
                    "internalType": "uint256",
                    "name": "lockIndex",
                    "type": "uint256"
                }
            ],
            "name": "burnLock",
            "outputs": [
                {
                    "internalType": "contract Lock",
                    "name": "lock",
                    "type": "address"
                }
            ],
            "stateMutability": "nonpayable",
            "type": "function"
        },
        {
            "inputs": [
                {
                    "internalType": "uint256",
                    "name": "amount",
                    "type": "uint256"
                }
            ],
            "name": "createLock",
            "outputs": [
                {
                    "internalType": "contract Lock",
                    "name": "lock",
                    "type": "address"
                }
            ],
            "stateMutability": "nonpayable",
            "type": "function"
        },
        {
            "inputs": [],
            "name": "decimals",
            "outputs": [
                {
                    "internalType": "uint8",
                    "name": "",
                    "type": "uint8"
                }
            ],
            "stateMutability": "view",
            "type": "function"
        },
        {
            "inputs": [
                {
                    "internalType": "address",
                    "name": "spender",
                    "type": "address"
                },
                {
                    "internalType": "uint256",
                    "name": "subtractedValue",
                    "type": "uint256"
                }
            ],
            "name": "decreaseAllowance",
            "outputs": [
                {
                    "internalType": "bool",
                    "name": "",
                    "type": "bool"
                }
            ],
            "stateMutability": "nonpayable",
            "type": "function"
        },
        {
            "inputs": [
                {
                    "internalType": "address",
                    "name": "lockCreator",
                    "type": "address"
                },
                {
                    "internalType": "uint256",
                    "name": "lockIndex",
                    "type": "uint256"
                }
            ],
            "name": "getLock",
            "outputs": [
                {
                    "internalType": "contract Lock",
                    "name": "",
                    "type": "address"
                }
            ],
            "stateMutability": "view",
            "type": "function"
        },
        {
            "inputs": [
                {
                    "internalType": "address",
                    "name": "spender",
                    "type": "address"
                },
                {
                    "internalType": "uint256",
                    "name": "addedValue",
                    "type": "uint256"
                }
            ],
            "name": "increaseAllowance",
            "outputs": [
                {
                    "internalType": "bool",
                    "name": "",
                    "type": "bool"
                }
            ],
            "stateMutability": "nonpayable",
            "type": "function"
        },
        {
            "inputs": [],
            "name": "initialize",
            "outputs": [],
            "stateMutability": "nonpayable",
            "type": "function"
        },
        {
            "inputs": [
                {
                    "internalType": "address",
                    "name": "account",
                    "type": "address"
                }
            ],
            "name": "isAddressBlocked",
            "outputs": [
                {
                    "internalType": "bool",
                    "name": "",
                    "type": "bool"
                }
            ],
            "stateMutability": "view",
            "type": "function"
        },
        {
            "inputs": [
                {
                    "internalType": "address",
                    "name": "account",
                    "type": "address"
                },
                {
                    "internalType": "uint256",
                    "name": "amount",
                    "type": "uint256"
                }
            ],
            "name": "mint",
            "outputs": [],
            "stateMutability": "nonpayable",
            "type": "function"
        },
        {
            "inputs": [],
            "name": "name",
            "outputs": [
                {
                    "internalType": "string",
                    "name": "",
                    "type": "string"
                }
            ],
            "stateMutability": "view",
            "type": "function"
        },
        {
            "inputs": [],
            "name": "owner",
            "outputs": [
                {
                    "internalType": "address",
                    "name": "",
                    "type": "address"
                }
            ],
            "stateMutability": "view",
            "type": "function"
        },
        {
            "inputs": [],
            "name": "pause",
            "outputs": [],
            "stateMutability": "nonpayable",
            "type": "function"
        },
        {
            "inputs": [],
            "name": "paused",
            "outputs": [
                {
                    "internalType": "bool",
                    "name": "",
                    "type": "bool"
                }
            ],
            "stateMutability": "view",
            "type": "function"
        },
        {
            "inputs": [
                {
                    "internalType": "address",
                    "name": "lockCreator",
                    "type": "address"
                },
                {
                    "internalType": "uint256",
                    "name": "lockIndex",
                    "type": "uint256"
                }
            ],
            "name": "releaseLock",
            "outputs": [
                {
                    "internalType": "contract Lock",
                    "name": "lock",
                    "type": "address"
                }
            ],
            "stateMutability": "nonpayable",
            "type": "function"
        },
        {
            "inputs": [],
            "name": "renounceOwnership",
            "outputs": [],
            "stateMutability": "nonpayable",
            "type": "function"
        },
        {
            "inputs": [
                {
                    "internalType": "address",
                    "name": "account",
                    "type": "address"
                },
                {
                    "internalType": "bool",
                    "name": "blocked",
                    "type": "bool"
                }
            ],
            "name": "setAddressBlockade",
            "outputs": [
                {
                    "internalType": "bool",
                    "name": "",
                    "type": "bool"
                }
            ],
            "stateMutability": "nonpayable",
            "type": "function"
        },
        {
            "inputs": [],
            "name": "symbol",
            "outputs": [
                {
                    "internalType": "string",
                    "name": "",
                    "type": "string"
                }
            ],
            "stateMutability": "view",
            "type": "function"
        },
        {
            "inputs": [],
            "name": "totalSupply",
            "outputs": [
                {
                    "internalType": "uint256",
                    "name": "",
                    "type": "uint256"
                }
            ],
            "stateMutability": "view",
            "type": "function"
        },
        {
            "inputs": [
                {
                    "internalType": "address",
                    "name": "account",
                    "type": "address"
                },
                {
                    "internalType": "uint256",
                    "name": "amount",
                    "type": "uint256"
                }
            ],
            "name": "transfer",
            "outputs": [
                {
                    "internalType": "bool",
                    "name": "",
                    "type": "bool"
                }
            ],
            "stateMutability": "nonpayable",
            "type": "function"
        },
        {
            "inputs": [
                {
                    "internalType": "address",
                    "name": "from",
                    "type": "address"
                },
                {
                    "internalType": "address",
                    "name": "to",
                    "type": "address"
                },
                {
                    "internalType": "uint256",
                    "name": "value",
                    "type": "uint256"
                }
            ],
            "name": "transferFrom",
            "outputs": [
                {
                    "internalType": "bool",
                    "name": "",
                    "type": "bool"
                }
            ],
            "stateMutability": "nonpayable",
            "type": "function"
        },
        {
            "inputs": [
                {
                    "internalType": "address",
                    "name": "newOwner",
                    "type": "address"
                }
            ],
            "name": "transferOwnership",
            "outputs": [],
            "stateMutability": "nonpayable",
            "type": "function"
        },
        {
            "inputs": [],
            "name": "unpause",
            "outputs": [],
            "stateMutability": "nonpayable",
            "type": "function"
        }
    ],
    "bytecode": "0x608060405234801561000f575f80fd5b506137ac8061001d5f395ff3fe608060405234801562000010575f80fd5b506004361062000194575f3560e01c806370a0823111620000f157806395d89b4111620000a3578063dd62ed3e1162000079578063dd62ed3e14620004d0578063e7dad4f91462000506578063f2fde38b146200053c578063f7d9d0c4146200055c5762000194565b806395d89b411462000442578063a457c2d71462000464578063a9059cbb146200049a5762000194565b806370a082311462000390578063715018a614620003c65780637d3b83f314620003d25780638129fc1c14620004085780638456cb5914620004145780638da5cb5b14620004205762000194565b806323b872dd116200014b57806323b872dd14620002b4578063313ce56714620002ea57806339509351146200030c5780633f4ba83a146200034257806340c10f19146200034e5780635c975abb146200036e5762000194565b806303477ab9146200019857806306fdde0314620001ce578063095ea7b314620001f05780631208a256146200022657806313a787a5146200025c57806318160ddd1462000292575b5f80fd5b620001b66004803603810190620001b09190620023c3565b62000592565b604051620001c5919062002419565b60405180910390f35b620001d8620006e7565b604051620001e79190620024c8565b60405180910390f35b6200020e600480360381019062000208919062002522565b6200077f565b6040516200021d919062002419565b60405180910390f35b6200024460048036038101906200023e919062002522565b62000840565b604051620002539190620025ce565b60405180910390f35b6200027a600480360381019062000274919062002522565b620008cd565b604051620002899190620025ce565b60405180910390f35b6200029c62000a6c565b604051620002ab9190620025fa565b60405180910390f35b620002d26004803603810190620002cc919062002615565b62000a75565b604051620002e1919062002419565b60405180910390f35b620002f462000b40565b6040516200030391906200268b565b60405180910390f35b6200032a600480360381019062000324919062002522565b62000b48565b60405162000339919062002419565b60405180910390f35b6200034c62000b86565b005b6200036c600480360381019062000366919062002522565b62000b9c565b005b6200037862000c9d565b60405162000387919062002419565b60405180910390f35b620003ae6004803603810190620003a89190620026a6565b62000cb2565b604051620003bd9190620025fa565b60405180910390f35b620003d062000cf8565b005b620003f06004803603810190620003ea919062002522565b62000d0f565b604051620003ff9190620025ce565b60405180910390f35b6200041262000e22565b005b6200041e62000fe8565b005b6200042a62000ffe565b604051620004399190620026e7565b60405180910390f35b6200044c62001026565b6040516200045b9190620024c8565b60405180910390f35b6200048260048036038101906200047c919062002522565b620010be565b60405162000491919062002419565b60405180910390f35b620004b86004803603810190620004b2919062002522565b6200113c565b604051620004c7919062002419565b60405180910390f35b620004ee6004803603810190620004e8919062002702565b620011fd565b604051620004fd9190620025fa565b60405180910390f35b6200052460048036038101906200051e9190620026a6565b6200127f565b60405162000533919062002419565b60405180910390f35b6200055a6004803603810190620005549190620026a6565b620012e5565b005b6200057a600480360381019062000574919062002747565b6200136e565b604051620005899190620025ce565b60405180910390f35b5f6200059d620015c1565b620005a762001610565b81151560ca5f8573ffffffffffffffffffffffffffffffffffffffff1673ffffffffffffffffffffffffffffffffffffffff1681526020019081526020015f205f9054906101000a900460ff1615150362000639576040517f08c379a00000000000000000000000000000000000000000000000000000000081526004016200063090620027eb565b60405180910390fd5b8160ca5f8573ffffffffffffffffffffffffffffffffffffffff1673ffffffffffffffffffffffffffffffffffffffff1681526020019081526020015f205f6101000a81548160ff0219169083151502179055508273ffffffffffffffffffffffffffffffffffffffff167f56734a1010e5069caf2907e922827943c0ca52a24d4106fd19de10dedd3d090f83604051620006d5919062002419565b60405180910390a26001905092915050565b606060368054620006f89062002838565b80601f0160208091040260200160405190810160405280929190818152602001828054620007269062002838565b8015620007755780601f106200074b5761010080835404028352916020019162000775565b820191905f5260205f20905b8154815290600101906020018083116200075757829003601f168201915b5050505050905090565b5f6200078a620015c1565b60ca5f6200079762001695565b73ffffffffffffffffffffffffffffffffffffffff1673ffffffffffffffffffffffffffffffffffffffff1681526020019081526020015f205f9054906101000a900460ff161562000820576040517f08c379a00000000000000000000000000000000000000000000000000000000081526004016200081790620028ba565b60405180910390fd5b620008366200082e62001695565b84846200169c565b6001905092915050565b5f6200084b620015c1565b60c95f8473ffffffffffffffffffffffffffffffffffffffff1673ffffffffffffffffffffffffffffffffffffffff1681526020019081526020015f2082815481106200089d576200089c620028da565b5b905f5260205f20015f9054906101000a900473ffffffffffffffffffffffffffffffffffffffff16905092915050565b5f620008d862001610565b620008e2620015c1565b60ca5f8473ffffffffffffffffffffffffffffffffffffffff1673ffffffffffffffffffffffffffffffffffffffff1681526020019081526020015f205f9054906101000a900460ff16156200096f576040517f08c379a00000000000000000000000000000000000000000000000000000000081526004016200096690620028ba565b60405180910390fd5b6200097b838362000840565b90505f620009898262000cb2565b905062000997828262001867565b60c95f8573ffffffffffffffffffffffffffffffffffffffff1673ffffffffffffffffffffffffffffffffffffffff1681526020019081526020015f208381548110620009e957620009e8620028da565b5b905f5260205f20015f6101000a81549073ffffffffffffffffffffffffffffffffffffffff02191690558373ffffffffffffffffffffffffffffffffffffffff167f1d9af75e46cc7b38c7349e0b112fb0c07b82226489ebaf325c96f0ceea849127848360405162000a5d92919062002907565b60405180910390a25092915050565b5f603554905090565b5f62000a80620015c1565b5f62000a8b62001695565b905060ca5f8273ffffffffffffffffffffffffffffffffffffffff1673ffffffffffffffffffffffffffffffffffffffff1681526020019081526020015f205f9054906101000a900460ff161562000b1a576040517f08c379a000000000000000000000000000000000000000000000000000000000815260040162000b1190620028ba565b60405180910390fd5b62000b2785828562001a38565b62000b3485858562001acb565b60019150509392505050565b5f6012905090565b5f8062000b5462001695565b905062000b7b81858562000b698589620011fd565b62000b7591906200295f565b6200169c565b600191505092915050565b62000b9062001610565b62000b9a62001d49565b565b62000ba662001610565b62000bb0620015c1565b60ca5f8373ffffffffffffffffffffffffffffffffffffffff1673ffffffffffffffffffffffffffffffffffffffff1681526020019081526020015f205f9054906101000a900460ff161562000c3d576040517f08c379a000000000000000000000000000000000000000000000000000000000815260040162000c3490620028ba565b60405180910390fd5b62000c49828262001db0565b8173ffffffffffffffffffffffffffffffffffffffff167f0f6798a560793a54c3bcfe86a93cde1e73087d944c0ea20544137d41213968858260405162000c919190620025fa565b60405180910390a25050565b5f60655f9054906101000a900460ff16905090565b5f60335f8373ffffffffffffffffffffffffffffffffffffffff1673ffffffffffffffffffffffffffffffffffffffff1681526020019081526020015f20549050919050565b62000d0262001610565b62000d0d5f62001f0a565b565b5f62000d1a62001610565b62000d24620015c1565b62000d30838362000840565b90505f62000d3e8262000cb2565b905062000d4d82858362001acb565b60c95f8573ffffffffffffffffffffffffffffffffffffffff1673ffffffffffffffffffffffffffffffffffffffff1681526020019081526020015f20838154811062000d9f5762000d9e620028da565b5b905f5260205f20015f6101000a81549073ffffffffffffffffffffffffffffffffffffffff02191690558373ffffffffffffffffffffffffffffffffffffffff167fe9b292a2b0f9a116305381f15a967535fb5a4963449b79c47b45e7add608bcb7848360405162000e1392919062002907565b60405180910390a25092915050565b5f8060019054906101000a900460ff1615905080801562000e52575060015f8054906101000a900460ff1660ff16105b8062000e82575062000e643062001fcd565b15801562000e81575060015f8054906101000a900460ff1660ff16145b5b62000ec4576040517f08c379a000000000000000000000000000000000000000000000000000000000815260040162000ebb9062002a0d565b60405180910390fd5b60015f806101000a81548160ff021916908360ff160217905550801562000f005760015f60016101000a81548160ff0219169083151502179055505b62000f766040518060400160405280600b81526020017f536f75726365546f6b656e0000000000000000000000000000000000000000008152506040518060400160405280600481526020017f535243540000000000000000000000000000000000000000000000000000000081525062001fef565b62000f8062002050565b62000f8a620020ad565b801562000fe5575f8060016101000a81548160ff0219169083151502179055507f7f26b83ff96e1f2b6a682f133852f6798a09c465da95921460cefb3847402498600160405162000fdc919062002a6e565b60405180910390a15b50565b62000ff262001610565b62000ffc6200210a565b565b5f60975f9054906101000a900473ffffffffffffffffffffffffffffffffffffffff16905090565b606060378054620010379062002838565b80601f0160208091040260200160405190810160405280929190818152602001828054620010659062002838565b8015620010b45780601f106200108a57610100808354040283529160200191620010b4565b820191905f5260205f20905b8154815290600101906020018083116200109657829003601f168201915b5050505050905090565b5f80620010ca62001695565b90505f620010d98286620011fd565b90508381101562001121576040517f08c379a0000000000000000000000000000000000000000000000000000000008152600401620011189062002afd565b60405180910390fd5b6200113082868684036200169c565b60019250505092915050565b5f62001147620015c1565b60ca5f6200115462001695565b73ffffffffffffffffffffffffffffffffffffffff1673ffffffffffffffffffffffffffffffffffffffff1681526020019081526020015f205f9054906101000a900460ff1615620011dd576040517f08c379a0000000000000000000000000000000000000000000000000000000008152600401620011d490620028ba565b60405180910390fd5b620011f3620011eb62001695565b848462001acb565b6001905092915050565b5f60345f8473ffffffffffffffffffffffffffffffffffffffff1673ffffffffffffffffffffffffffffffffffffffff1681526020019081526020015f205f8373ffffffffffffffffffffffffffffffffffffffff1673ffffffffffffffffffffffffffffffffffffffff1681526020019081526020015f2054905092915050565b5f6200128a620015c1565b6200129462001610565b60ca5f8373ffffffffffffffffffffffffffffffffffffffff1673ffffffffffffffffffffffffffffffffffffffff1681526020019081526020015f205f9054906101000a900460ff169050919050565b620012ef62001610565b5f73ffffffffffffffffffffffffffffffffffffffff168173ffffffffffffffffffffffffffffffffffffffff160362001360576040517f08c379a0000000000000000000000000000000000000000000000000000000008152600401620013579062002b91565b60405180910390fd5b6200136b8162001f0a565b50565b5f62001379620015c1565b60ca5f6200138662001695565b73ffffffffffffffffffffffffffffffffffffffff1673ffffffffffffffffffffffffffffffffffffffff1681526020019081526020015f205f9054906101000a900460ff16156200140f576040517f08c379a00000000000000000000000000000000000000000000000000000000081526004016200140690620028ba565b60405180910390fd5b6200141962001695565b604051620014279062002316565b620014339190620026e7565b604051809103905ff0801580156200144d573d5f803e3d5ffd5b509050620014666200145e62001695565b828462001acb565b60c95f6200147362001695565b73ffffffffffffffffffffffffffffffffffffffff1673ffffffffffffffffffffffffffffffffffffffff1681526020019081526020015f2081908060018154018082558091505060019003905f5260205f20015f9091909190916101000a81548173ffffffffffffffffffffffffffffffffffffffff021916908373ffffffffffffffffffffffffffffffffffffffff1602179055506200151462001695565b73ffffffffffffffffffffffffffffffffffffffff167f7281a63618af50f250eb3256c1ad8fd585a43b04dd6d2b01f6324c0143a8f9a2600160c95f6200155a62001695565b73ffffffffffffffffffffffffffffffffffffffff1673ffffffffffffffffffffffffffffffffffffffff1681526020019081526020015f2080549050620015a3919062002bb1565b84604051620015b492919062002907565b60405180910390a2919050565b620015cb62000c9d565b156200160e576040517f08c379a0000000000000000000000000000000000000000000000000000000008152600401620016059062002c39565b60405180910390fd5b565b6200161a62001695565b73ffffffffffffffffffffffffffffffffffffffff166200163a62000ffe565b73ffffffffffffffffffffffffffffffffffffffff161462001693576040517f08c379a00000000000000000000000000000000000000000000000000000000081526004016200168a9062002ca7565b60405180910390fd5b565b5f33905090565b5f73ffffffffffffffffffffffffffffffffffffffff168373ffffffffffffffffffffffffffffffffffffffff16036200170d576040517f08c379a0000000000000000000000000000000000000000000000000000000008152600401620017049062002d3b565b60405180910390fd5b5f73ffffffffffffffffffffffffffffffffffffffff168273ffffffffffffffffffffffffffffffffffffffff16036200177e576040517f08c379a0000000000000000000000000000000000000000000000000000000008152600401620017759062002dcf565b60405180910390fd5b8060345f8573ffffffffffffffffffffffffffffffffffffffff1673ffffffffffffffffffffffffffffffffffffffff1681526020019081526020015f205f8473ffffffffffffffffffffffffffffffffffffffff1673ffffffffffffffffffffffffffffffffffffffff1681526020019081526020015f20819055508173ffffffffffffffffffffffffffffffffffffffff168373ffffffffffffffffffffffffffffffffffffffff167f8c5be1e5ebec7d5bd14f71427d1e84f3dd0314c0f7b2291e5b200ac8c7c3b925836040516200185a9190620025fa565b60405180910390a3505050565b5f73ffffffffffffffffffffffffffffffffffffffff168273ffffffffffffffffffffffffffffffffffffffff1603620018d8576040517f08c379a0000000000000000000000000000000000000000000000000000000008152600401620018cf9062002e63565b60405180910390fd5b620018e5825f8362002172565b5f60335f8473ffffffffffffffffffffffffffffffffffffffff1673ffffffffffffffffffffffffffffffffffffffff1681526020019081526020015f20549050818110156200196c576040517f08c379a0000000000000000000000000000000000000000000000000000000008152600401620019639062002ef7565b60405180910390fd5b81810360335f8573ffffffffffffffffffffffffffffffffffffffff1673ffffffffffffffffffffffffffffffffffffffff1681526020019081526020015f20819055508160355f82825403925050819055505f73ffffffffffffffffffffffffffffffffffffffff168373ffffffffffffffffffffffffffffffffffffffff167fddf252ad1be2c89b69c2b068fc378daa952ba7f163c4a11628f55a4df523b3ef8460405162001a1e9190620025fa565b60405180910390a362001a33835f8462002177565b505050565b5f62001a458484620011fd565b90507fffffffffffffffffffffffffffffffffffffffffffffffffffffffffffffffff811462001ac5578181101562001ab5576040517f08c379a000000000000000000000000000000000000000000000000000000000815260040162001aac9062002f65565b60405180910390fd5b62001ac484848484036200169c565b5b50505050565b5f73ffffffffffffffffffffffffffffffffffffffff168373ffffffffffffffffffffffffffffffffffffffff160362001b3c576040517f08c379a000000000000000000000000000000000000000000000000000000000815260040162001b339062002ff9565b60405180910390fd5b5f73ffffffffffffffffffffffffffffffffffffffff168273ffffffffffffffffffffffffffffffffffffffff160362001bad576040517f08c379a000000000000000000000000000000000000000000000000000000000815260040162001ba4906200308d565b60405180910390fd5b62001bba83838362002172565b5f60335f8573ffffffffffffffffffffffffffffffffffffffff1673ffffffffffffffffffffffffffffffffffffffff1681526020019081526020015f205490508181101562001c41576040517f08c379a000000000000000000000000000000000000000000000000000000000815260040162001c389062003121565b60405180910390fd5b81810360335f8673ffffffffffffffffffffffffffffffffffffffff1673ffffffffffffffffffffffffffffffffffffffff1681526020019081526020015f20819055508160335f8573ffffffffffffffffffffffffffffffffffffffff1673ffffffffffffffffffffffffffffffffffffffff1681526020019081526020015f205f82825401925050819055508273ffffffffffffffffffffffffffffffffffffffff168473ffffffffffffffffffffffffffffffffffffffff167fddf252ad1be2c89b69c2b068fc378daa952ba7f163c4a11628f55a4df523b3ef8460405162001d2e9190620025fa565b60405180910390a362001d4384848462002177565b50505050565b62001d536200217c565b5f60655f6101000a81548160ff0219169083151502179055507f5db9ee0a495bf2e6ff9c91a7834c1ba4fdd244a5e8aa4e537bd38aeae4b073aa62001d9762001695565b60405162001da69190620026e7565b60405180910390a1565b5f73ffffffffffffffffffffffffffffffffffffffff168273ffffffffffffffffffffffffffffffffffffffff160362001e21576040517f08c379a000000000000000000000000000000000000000000000000000000000815260040162001e18906200318f565b60405180910390fd5b62001e2e5f838362002172565b8060355f82825462001e4191906200295f565b925050819055508060335f8473ffffffffffffffffffffffffffffffffffffffff1673ffffffffffffffffffffffffffffffffffffffff1681526020019081526020015f205f82825401925050819055508173ffffffffffffffffffffffffffffffffffffffff165f73ffffffffffffffffffffffffffffffffffffffff167fddf252ad1be2c89b69c2b068fc378daa952ba7f163c4a11628f55a4df523b3ef8360405162001ef19190620025fa565b60405180910390a362001f065f838362002177565b5050565b5f60975f9054906101000a900473ffffffffffffffffffffffffffffffffffffffff1690508160975f6101000a81548173ffffffffffffffffffffffffffffffffffffffff021916908373ffffffffffffffffffffffffffffffffffffffff1602179055508173ffffffffffffffffffffffffffffffffffffffff168173ffffffffffffffffffffffffffffffffffffffff167f8be0079c531659141344cd1fd0a4f28419497f9722a3daafe3b4186f6b6457e060405160405180910390a35050565b5f808273ffffffffffffffffffffffffffffffffffffffff163b119050919050565b5f60019054906101000a900460ff1662002040576040517f08c379a0000000000000000000000000000000000000000000000000000000008152600401620020379062003223565b60405180910390fd5b6200204c8282620021ca565b5050565b5f60019054906101000a900460ff16620020a1576040517f08c379a0000000000000000000000000000000000000000000000000000000008152600401620020989062003223565b60405180910390fd5b620020ab62002243565b565b5f60019054906101000a900460ff16620020fe576040517f08c379a0000000000000000000000000000000000000000000000000000000008152600401620020f59062003223565b60405180910390fd5b62002108620022aa565b565b62002114620015c1565b600160655f6101000a81548160ff0219169083151502179055507f62e78cea01bee320cd4e420270b5ea74000d11b0c9f74754ebdbfc544b05a2586200215962001695565b604051620021689190620026e7565b60405180910390a1565b505050565b505050565b6200218662000c9d565b620021c8576040517f08c379a0000000000000000000000000000000000000000000000000000000008152600401620021bf9062003291565b60405180910390fd5b565b5f60019054906101000a900460ff166200221b576040517f08c379a0000000000000000000000000000000000000000000000000000000008152600401620022129062003223565b60405180910390fd5b81603690816200222c919062003498565b5080603790816200223e919062003498565b505050565b5f60019054906101000a900460ff1662002294576040517f08c379a00000000000000000000000000000000000000000000000000000000081526004016200228b9062003223565b60405180910390fd5b620022a8620022a262001695565b62001f0a565b565b5f60019054906101000a900460ff16620022fb576040517f08c379a0000000000000000000000000000000000000000000000000000000008152600401620022f29062003223565b60405180910390fd5b5f60655f6101000a81548160ff021916908315150217905550565b6101fa806200357d83390190565b5f80fd5b5f73ffffffffffffffffffffffffffffffffffffffff82169050919050565b5f620023538262002328565b9050919050565b620023658162002347565b811462002370575f80fd5b50565b5f8135905062002383816200235a565b92915050565b5f8115159050919050565b6200239f8162002389565b8114620023aa575f80fd5b50565b5f81359050620023bd8162002394565b92915050565b5f8060408385031215620023dc57620023db62002324565b5b5f620023eb8582860162002373565b9250506020620023fe85828601620023ad565b9150509250929050565b620024138162002389565b82525050565b5f6020820190506200242e5f83018462002408565b92915050565b5f81519050919050565b5f82825260208201905092915050565b5f5b838110156200246d57808201518184015260208101905062002450565b5f8484015250505050565b5f601f19601f8301169050919050565b5f620024948262002434565b620024a081856200243e565b9350620024b28185602086016200244e565b620024bd8162002478565b840191505092915050565b5f6020820190508181035f830152620024e2818462002488565b905092915050565b5f819050919050565b620024fe81620024ea565b811462002509575f80fd5b50565b5f813590506200251c81620024f3565b92915050565b5f80604083850312156200253b576200253a62002324565b5b5f6200254a8582860162002373565b92505060206200255d858286016200250c565b9150509250929050565b5f819050919050565b5f620025906200258a620025848462002328565b62002567565b62002328565b9050919050565b5f620025a38262002570565b9050919050565b5f620025b68262002597565b9050919050565b620025c881620025aa565b82525050565b5f602082019050620025e35f830184620025bd565b92915050565b620025f481620024ea565b82525050565b5f6020820190506200260f5f830184620025e9565b92915050565b5f805f606084860312156200262f576200262e62002324565b5b5f6200263e8682870162002373565b9350506020620026518682870162002373565b925050604062002664868287016200250c565b9150509250925092565b5f60ff82169050919050565b62002685816200266e565b82525050565b5f602082019050620026a05f8301846200267a565b92915050565b5f60208284031215620026be57620026bd62002324565b5b5f620026cd8482850162002373565b91505092915050565b620026e18162002347565b82525050565b5f602082019050620026fc5f830184620026d6565b92915050565b5f80604083850312156200271b576200271a62002324565b5b5f6200272a8582860162002373565b92505060206200273d8582860162002373565b9150509250929050565b5f602082840312156200275f576200275e62002324565b5b5f6200276e848285016200250c565b91505092915050565b7f746865206163636f756e7420626c6f636b6164652069732063757272656e746c5f8201527f7920696e20746869732073746174650000000000000000000000000000000000602082015250565b5f620027d3602f836200243e565b9150620027e08262002777565b604082019050919050565b5f6020820190508181035f8301526200280481620027c5565b9050919050565b7f4e487b71000000000000000000000000000000000000000000000000000000005f52602260045260245ffd5b5f60028204905060018216806200285057607f821691505b6020821081036200286657620028656200280b565b5b50919050565b7f6163636f756e7420697320626c6f636b656400000000000000000000000000005f82015250565b5f620028a26012836200243e565b9150620028af826200286c565b602082019050919050565b5f6020820190508181035f830152620028d38162002894565b9050919050565b7f4e487b71000000000000000000000000000000000000000000000000000000005f52603260045260245ffd5b5f6040820190506200291c5f830185620025e9565b6200292b6020830184620025e9565b9392505050565b7f4e487b71000000000000000000000000000000000000000000000000000000005f52601160045260245ffd5b5f6200296b82620024ea565b91506200297883620024ea565b925082820190508082111562002993576200299262002932565b5b92915050565b7f496e697469616c697a61626c653a20636f6e747261637420697320616c7265615f8201527f647920696e697469616c697a6564000000000000000000000000000000000000602082015250565b5f620029f5602e836200243e565b915062002a028262002999565b604082019050919050565b5f6020820190508181035f83015262002a2681620029e7565b9050919050565b5f819050919050565b5f62002a5662002a5062002a4a8462002a2d565b62002567565b6200266e565b9050919050565b62002a688162002a36565b82525050565b5f60208201905062002a835f83018462002a5d565b92915050565b7f45524332303a2064656372656173656420616c6c6f77616e63652062656c6f775f8201527f207a65726f000000000000000000000000000000000000000000000000000000602082015250565b5f62002ae56025836200243e565b915062002af28262002a89565b604082019050919050565b5f6020820190508181035f83015262002b168162002ad7565b9050919050565b7f4f776e61626c653a206e6577206f776e657220697320746865207a65726f20615f8201527f6464726573730000000000000000000000000000000000000000000000000000602082015250565b5f62002b796026836200243e565b915062002b868262002b1d565b604082019050919050565b5f6020820190508181035f83015262002baa8162002b6b565b9050919050565b5f62002bbd82620024ea565b915062002bca83620024ea565b925082820390508181111562002be55762002be462002932565b5b92915050565b7f5061757361626c653a20706175736564000000000000000000000000000000005f82015250565b5f62002c216010836200243e565b915062002c2e8262002beb565b602082019050919050565b5f6020820190508181035f83015262002c528162002c13565b9050919050565b7f4f776e61626c653a2063616c6c6572206973206e6f7420746865206f776e65725f82015250565b5f62002c8f6020836200243e565b915062002c9c8262002c59565b602082019050919050565b5f6020820190508181035f83015262002cc08162002c81565b9050919050565b7f45524332303a20617070726f76652066726f6d20746865207a65726f206164645f8201527f7265737300000000000000000000000000000000000000000000000000000000602082015250565b5f62002d236024836200243e565b915062002d308262002cc7565b604082019050919050565b5f6020820190508181035f83015262002d548162002d15565b9050919050565b7f45524332303a20617070726f766520746f20746865207a65726f2061646472655f8201527f7373000000000000000000000000000000000000000000000000000000000000602082015250565b5f62002db76022836200243e565b915062002dc48262002d5b565b604082019050919050565b5f6020820190508181035f83015262002de88162002da9565b9050919050565b7f45524332303a206275726e2066726f6d20746865207a65726f206164647265735f8201527f7300000000000000000000000000000000000000000000000000000000000000602082015250565b5f62002e4b6021836200243e565b915062002e588262002def565b604082019050919050565b5f6020820190508181035f83015262002e7c8162002e3d565b9050919050565b7f45524332303a206275726e20616d6f756e7420657863656564732062616c616e5f8201527f6365000000000000000000000000000000000000000000000000000000000000602082015250565b5f62002edf6022836200243e565b915062002eec8262002e83565b604082019050919050565b5f6020820190508181035f83015262002f108162002ed1565b9050919050565b7f45524332303a20696e73756666696369656e7420616c6c6f77616e63650000005f82015250565b5f62002f4d601d836200243e565b915062002f5a8262002f17565b602082019050919050565b5f6020820190508181035f83015262002f7e8162002f3f565b9050919050565b7f45524332303a207472616e736665722066726f6d20746865207a65726f2061645f8201527f6472657373000000000000000000000000000000000000000000000000000000602082015250565b5f62002fe16025836200243e565b915062002fee8262002f85565b604082019050919050565b5f6020820190508181035f830152620030128162002fd3565b9050919050565b7f45524332303a207472616e7366657220746f20746865207a65726f20616464725f8201527f6573730000000000000000000000000000000000000000000000000000000000602082015250565b5f620030756023836200243e565b9150620030828262003019565b604082019050919050565b5f6020820190508181035f830152620030a68162003067565b9050919050565b7f45524332303a207472616e7366657220616d6f756e74206578636565647320625f8201527f616c616e63650000000000000000000000000000000000000000000000000000602082015250565b5f620031096026836200243e565b91506200311682620030ad565b604082019050919050565b5f6020820190508181035f8301526200313a81620030fb565b9050919050565b7f45524332303a206d696e7420746f20746865207a65726f2061646472657373005f82015250565b5f62003177601f836200243e565b9150620031848262003141565b602082019050919050565b5f6020820190508181035f830152620031a88162003169565b9050919050565b7f496e697469616c697a61626c653a20636f6e7472616374206973206e6f7420695f8201527f6e697469616c697a696e67000000000000000000000000000000000000000000602082015250565b5f6200320b602b836200243e565b91506200321882620031af565b604082019050919050565b5f6020820190508181035f8301526200323c81620031fd565b9050919050565b7f5061757361626c653a206e6f74207061757365640000000000000000000000005f82015250565b5f620032796014836200243e565b9150620032868262003243565b602082019050919050565b5f6020820190508181035f830152620032aa816200326b565b9050919050565b7f4e487b71000000000000000000000000000000000000000000000000000000005f52604160045260245ffd5b5f819050815f5260205f209050919050565b5f6020601f8301049050919050565b5f82821b905092915050565b5f600883026200333c7fffffffffffffffffffffffffffffffffffffffffffffffffffffffffffffffff82620032ff565b620033488683620032ff565b95508019841693508086168417925050509392505050565b5f620033806200337a6200337484620024ea565b62002567565b620024ea565b9050919050565b5f819050919050565b6200339b8362003360565b620033b3620033aa8262003387565b8484546200330b565b825550505050565b5f90565b620033c9620033bb565b620033d681848462003390565b505050565b5b81811015620033fd57620033f15f82620033bf565b600181019050620033dc565b5050565b601f8211156200344c576200341681620032de565b6200342184620032f0565b8101602085101562003431578190505b620034496200344085620032f0565b830182620033db565b50505b505050565b5f82821c905092915050565b5f6200346e5f198460080262003451565b1980831691505092915050565b5f6200348883836200345d565b9150826002028217905092915050565b620034a38262002434565b67ffffffffffffffff811115620034bf57620034be620032b1565b5b620034cb825462002838565b620034d882828562003401565b5f60209050601f8311600181146200350e575f8415620034f9578287015190505b6200350585826200347b565b86555062003574565b601f1984166200351e86620032de565b5f5b82811015620035475784890151825560018201915060208501945060208101905062003520565b8683101562003567578489015162003563601f8916826200345d565b8355505b6001600288020188555050505b50505050505056fe608060405234801561000f575f80fd5b506040516101fa3803806101fa833981810160405281019061003191906100d4565b805f806101000a81548173ffffffffffffffffffffffffffffffffffffffff021916908373ffffffffffffffffffffffffffffffffffffffff160217905550506100ff565b5f80fd5b5f73ffffffffffffffffffffffffffffffffffffffff82169050919050565b5f6100a38261007a565b9050919050565b6100b381610099565b81146100bd575f80fd5b50565b5f815190506100ce816100aa565b92915050565b5f602082840312156100e9576100e8610076565b5b5f6100f6848285016100c0565b91505092915050565b60ef8061010b5f395ff3fe6080604052348015600e575f80fd5b50600436106026575f3560e01c806302d05d3f14602a575b5f80fd5b60306044565b604051603b919060a2565b60405180910390f35b5f8054906101000a900473ffffffffffffffffffffffffffffffffffffffff1681565b5f73ffffffffffffffffffffffffffffffffffffffff82169050919050565b5f608e826067565b9050919050565b609c816086565b82525050565b5f60208201905060b35f8301846095565b9291505056fea26469706673582212208ef5d06c1e17e9d8dfb608b98df0e9cee7093d24a8980941479a96b994b4f53c64736f6c63430008150033a2646970667358221220199e984cef9ac7a9d9e86a19bcbe94972db74c22a03d371a9dac4fa632919d7564736f6c63430008150033",
    "linkReferences": {},
    "deployedLinkReferences": {}
}