{
  "_format": "hh-sol-artifact-1",
  "contractName": "TargetToken",
  "sourceName": "contracts/TargetToken/TargetToken.sol",
  "abi": [
    {
      "anonymous": false,
      "inputs": [
        {
          "indexed": true,
          "internalType": "address",
          "name": "account",
          "type": "address"
        },
        {
          "indexed": false,
          "internalType": "bool",
          "name": "blocked",
          "type": "bool"
        }
      ],
      "name": "AddressBlockadeSet",
      "type": "event"
    },
    {
      "anonymous": false,
      "inputs": [
        {
          "indexed": true,
          "internalType": "address",
          "name": "owner",
          "type": "address"
        },
        {
          "indexed": true,
          "internalType": "address",
          "name": "spender",
          "type": "address"
        },
        {
          "indexed": false,
          "internalType": "uint256",
          "name": "value",
          "type": "uint256"
        }
      ],
      "name": "Approval",
      "type": "event"
    },
    {
      "anonymous": false,
      "inputs": [
        {
          "indexed": true,
          "internalType": "address",
          "name": "to",
          "type": "address"
        },
        {
          "indexed": false,
          "internalType": "uint256",
          "name": "amount",
          "type": "uint256"
        }
      ],
      "name": "Burn",
      "type": "event"
    },
    {
      "anonymous": false,
      "inputs": [
        {
          "indexed": false,
          "internalType": "uint8",
          "name": "version",
          "type": "uint8"
        }
      ],
      "name": "Initialized",
      "type": "event"
    },
    {
      "anonymous": false,
      "inputs": [
        {
          "indexed": true,
          "internalType": "address",
          "name": "creator",
          "type": "address"
        },
        {
          "indexed": false,
          "internalType": "uint256",
          "name": "index",
          "type": "uint256"
        },
        {
          "indexed": false,
          "internalType": "uint256",
          "name": "amount",
          "type": "uint256"
        }
      ],
      "name": "LockBurn",
      "type": "event"
    },
    {
      "anonymous": false,
      "inputs": [
        {
          "indexed": true,
          "internalType": "address",
          "name": "creator",
          "type": "address"
        },
        {
          "indexed": false,
          "internalType": "uint256",
          "name": "index",
          "type": "uint256"
        },
        {
          "indexed": false,
          "internalType": "uint256",
          "name": "amount",
          "type": "uint256"
        }
      ],
      "name": "LockCreate",
      "type": "event"
    },
    {
      "anonymous": false,
      "inputs": [
        {
          "indexed": true,
          "internalType": "address",
          "name": "creator",
          "type": "address"
        },
        {
          "indexed": false,
          "internalType": "uint256",
          "name": "index",
          "type": "uint256"
        },
        {
          "indexed": false,
          "internalType": "uint256",
          "name": "amount",
          "type": "uint256"
        }
      ],
      "name": "LockRelease",
      "type": "event"
    },
    {
      "anonymous": false,
      "inputs": [
        {
          "indexed": true,
          "internalType": "address",
          "name": "to",
          "type": "address"
        },
        {
          "indexed": false,
          "internalType": "uint256",
          "name": "amount",
          "type": "uint256"
        }
      ],
      "name": "Mint",
      "type": "event"
    },
    {
      "anonymous": false,
      "inputs": [
        {
          "indexed": true,
          "internalType": "address",
          "name": "previousOwner",
          "type": "address"
        },
        {
          "indexed": true,
          "internalType": "address",
          "name": "newOwner",
          "type": "address"
        }
      ],
      "name": "OwnershipTransferred",
      "type": "event"
    },
    {
      "anonymous": false,
      "inputs": [
        {
          "indexed": false,
          "internalType": "address",
          "name": "account",
          "type": "address"
        }
      ],
      "name": "Paused",
      "type": "event"
    },
    {
      "anonymous": false,
      "inputs": [
        {
          "indexed": true,
          "internalType": "address",
          "name": "from",
          "type": "address"
        },
        {
          "indexed": true,
          "internalType": "address",
          "name": "to",
          "type": "address"
        },
        {
          "indexed": false,
          "internalType": "uint256",
          "name": "value",
          "type": "uint256"
        }
      ],
      "name": "Transfer",
      "type": "event"
    },
    {
      "anonymous": false,
      "inputs": [
        {
          "indexed": false,
          "internalType": "address",
          "name": "account",
          "type": "address"
        }
      ],
      "name": "Unpaused",
      "type": "event"
    },
    {
      "inputs": [
        {
          "internalType": "address",
          "name": "owner",
          "type": "address"
        },
        {
          "internalType": "address",
          "name": "spender",
          "type": "address"
        }
      ],
      "name": "allowance",
      "outputs": [
        {
          "internalType": "uint256",
          "name": "",
          "type": "uint256"
        }
      ],
      "stateMutability": "view",
      "type": "function"
    },
    {
      "inputs": [
        {
          "internalType": "address",
          "name": "spender",
          "type": "address"
        },
        {
          "internalType": "uint256",
          "name": "amount",
          "type": "uint256"
        }
      ],
      "name": "approve",
      "outputs": [
        {
          "internalType": "bool",
          "name": "",
          "type": "bool"
        }
      ],
      "stateMutability": "nonpayable",
      "type": "function"
    },
    {
      "inputs": [
        {
          "internalType": "address",
          "name": "account",
          "type": "address"
        }
      ],
      "name": "balanceOf",
      "outputs": [
        {
          "internalType": "uint256",
          "name": "",
          "type": "uint256"
        }
      ],
      "stateMutability": "view",
      "type": "function"
    },
    {
      "inputs": [
        {
          "internalType": "address",
          "name": "lockCreator",
          "type": "address"
        },
        {
          "internalType": "uint256",
          "name": "lockIndex",
          "type": "uint256"
        }
      ],
      "name": "burnLock",
      "outputs": [
        {
          "internalType": "contract Lock",
          "name": "lock",
          "type": "address"
        }
      ],
      "stateMutability": "nonpayable",
      "type": "function"
    },
    {
      "inputs": [
        {
          "internalType": "uint256",
          "name": "amount",
          "type": "uint256"
        }
      ],
      "name": "createLock",
      "outputs": [
        {
          "internalType": "contract Lock",
          "name": "lock",
          "type": "address"
        }
      ],
      "stateMutability": "nonpayable",
      "type": "function"
    },
    {
      "inputs": [],
      "name": "decimals",
      "outputs": [
        {
          "internalType": "uint8",
          "name": "",
          "type": "uint8"
        }
      ],
      "stateMutability": "view",
      "type": "function"
    },
    {
      "inputs": [
        {
          "internalType": "address",
          "name": "spender",
          "type": "address"
        },
        {
          "internalType": "uint256",
          "name": "subtractedValue",
          "type": "uint256"
        }
      ],
      "name": "decreaseAllowance",
      "outputs": [
        {
          "internalType": "bool",
          "name": "",
          "type": "bool"
        }
      ],
      "stateMutability": "nonpayable",
      "type": "function"
    },
    {
      "inputs": [
        {
          "internalType": "address",
          "name": "lockCreator",
          "type": "address"
        },
        {
          "internalType": "uint256",
          "name": "lockIndex",
          "type": "uint256"
        }
      ],
      "name": "getLock",
      "outputs": [
        {
          "internalType": "contract Lock",
          "name": "",
          "type": "address"
        }
      ],
      "stateMutability": "view",
      "type": "function"
    },
    {
      "inputs": [
        {
          "internalType": "address",
          "name": "spender",
          "type": "address"
        },
        {
          "internalType": "uint256",
          "name": "addedValue",
          "type": "uint256"
        }
      ],
      "name": "increaseAllowance",
      "outputs": [
        {
          "internalType": "bool",
          "name": "",
          "type": "bool"
        }
      ],
      "stateMutability": "nonpayable",
      "type": "function"
    },
    {
      "inputs": [],
      "name": "initialize",
      "outputs": [],
      "stateMutability": "nonpayable",
      "type": "function"
    },
    {
      "inputs": [
        {
          "internalType": "address",
          "name": "account",
          "type": "address"
        }
      ],
      "name": "isAddressBlocked",
      "outputs": [
        {
          "internalType": "bool",
          "name": "",
          "type": "bool"
        }
      ],
      "stateMutability": "view",
      "type": "function"
    },
    {
      "inputs": [
        {
          "internalType": "address",
          "name": "account",
          "type": "address"
        },
        {
          "internalType": "uint256",
          "name": "amount",
          "type": "uint256"
        }
      ],
      "name": "mint",
      "outputs": [],
      "stateMutability": "nonpayable",
      "type": "function"
    },
    {
      "inputs": [],
      "name": "name",
      "outputs": [
        {
          "internalType": "string",
          "name": "",
          "type": "string"
        }
      ],
      "stateMutability": "view",
      "type": "function"
    },
    {
      "inputs": [],
      "name": "owner",
      "outputs": [
        {
          "internalType": "address",
          "name": "",
          "type": "address"
        }
      ],
      "stateMutability": "view",
      "type": "function"
    },
    {
      "inputs": [],
      "name": "pause",
      "outputs": [],
      "stateMutability": "nonpayable",
      "type": "function"
    },
    {
      "inputs": [],
      "name": "paused",
      "outputs": [
        {
          "internalType": "bool",
          "name": "",
          "type": "bool"
        }
      ],
      "stateMutability": "view",
      "type": "function"
    },
    {
      "inputs": [
        {
          "internalType": "address",
          "name": "lockCreator",
          "type": "address"
        },
        {
          "internalType": "uint256",
          "name": "lockIndex",
          "type": "uint256"
        }
      ],
      "name": "releaseLock",
      "outputs": [
        {
          "internalType": "contract Lock",
          "name": "lock",
          "type": "address"
        }
      ],
      "stateMutability": "nonpayable",
      "type": "function"
    },
    {
      "inputs": [],
      "name": "renounceOwnership",
      "outputs": [],
      "stateMutability": "nonpayable",
      "type": "function"
    },
    {
      "inputs": [
        {
          "internalType": "address",
          "name": "account",
          "type": "address"
        },
        {
          "internalType": "bool",
          "name": "blocked",
          "type": "bool"
        }
      ],
      "name": "setAddressBlockade",
      "outputs": [
        {
          "internalType": "bool",
          "name": "",
          "type": "bool"
        }
      ],
      "stateMutability": "nonpayable",
      "type": "function"
    },
    {
      "inputs": [],
      "name": "symbol",
      "outputs": [
        {
          "internalType": "string",
          "name": "",
          "type": "string"
        }
      ],
      "stateMutability": "view",
      "type": "function"
    },
    {
      "inputs": [],
      "name": "totalSupply",
      "outputs": [
        {
          "internalType": "uint256",
          "name": "",
          "type": "uint256"
        }
      ],
      "stateMutability": "view",
      "type": "function"
    },
    {
      "inputs": [
        {
          "internalType": "address",
          "name": "account",
          "type": "address"
        },
        {
          "internalType": "uint256",
          "name": "amount",
          "type": "uint256"
        }
      ],
      "name": "transfer",
      "outputs": [
        {
          "internalType": "bool",
          "name": "",
          "type": "bool"
        }
      ],
      "stateMutability": "nonpayable",
      "type": "function"
    },
    {
      "inputs": [
        {
          "internalType": "address",
          "name": "from",
          "type": "address"
        },
        {
          "internalType": "address",
          "name": "to",
          "type": "address"
        },
        {
          "internalType": "uint256",
          "name": "value",
          "type": "uint256"
        }
      ],
      "name": "transferFrom",
      "outputs": [
        {
          "internalType": "bool",
          "name": "",
          "type": "bool"
        }
      ],
      "stateMutability": "nonpayable",
      "type": "function"
    },
    {
      "inputs": [
        {
          "internalType": "address",
          "name": "newOwner",
          "type": "address"
        }
      ],
      "name": "transferOwnership",
      "outputs": [],
      "stateMutability": "nonpayable",
      "type": "function"
    },
    {
      "inputs": [],
      "name": "unpause",
      "outputs": [],
      "stateMutability": "nonpayable",
      "type": "function"
    }
  ],
  "bytecode": "0x608060405234801561000f575f80fd5b506136de8061001d5f395ff3fe608060405234801562000010575f80fd5b506004361062000194575f3560e01c806370a0823111620000f157806395d89b4111620000a3578063dd62ed3e1162000079578063dd62ed3e14620004d0578063e7dad4f91462000506578063f2fde38b146200053c578063f7d9d0c4146200055c5762000194565b806395d89b411462000442578063a457c2d71462000464578063a9059cbb146200049a5762000194565b806370a082311462000390578063715018a614620003c65780637d3b83f314620003d25780638129fc1c14620004085780638456cb5914620004145780638da5cb5b14620004205762000194565b806323b872dd116200014b57806323b872dd14620002b4578063313ce56714620002ea57806339509351146200030c5780633f4ba83a146200034257806340c10f19146200034e5780635c975abb146200036e5762000194565b806303477ab9146200019857806306fdde0314620001ce578063095ea7b314620001f05780631208a256146200022657806313a787a5146200025c57806318160ddd1462000292575b5f80fd5b620001b66004803603810190620001b09190620022f5565b62000592565b604051620001c591906200234b565b60405180910390f35b620001d8620006e7565b604051620001e79190620023fa565b60405180910390f35b6200020e600480360381019062000208919062002454565b6200077f565b6040516200021d91906200234b565b60405180910390f35b6200024460048036038101906200023e919062002454565b62000840565b60405162000253919062002500565b60405180910390f35b6200027a600480360381019062000274919062002454565b620008cd565b60405162000289919062002500565b60405180910390f35b6200029c62000a6c565b604051620002ab91906200252c565b60405180910390f35b620002d26004803603810190620002cc919062002547565b62000a75565b604051620002e191906200234b565b60405180910390f35b620002f462000b40565b604051620003039190620025bd565b60405180910390f35b6200032a600480360381019062000324919062002454565b62000b48565b6040516200033991906200234b565b60405180910390f35b6200034c62000b86565b005b6200036c600480360381019062000366919062002454565b62000b9c565b005b6200037862000c9d565b6040516200038791906200234b565b60405180910390f35b620003ae6004803603810190620003a89190620025d8565b62000cb2565b604051620003bd91906200252c565b60405180910390f35b620003d062000cf8565b005b620003f06004803603810190620003ea919062002454565b62000d0f565b604051620003ff919062002500565b60405180910390f35b6200041262000e22565b005b6200041e62000fde565b005b6200042a62000ff4565b60405162000439919062002619565b60405180910390f35b6200044c6200101c565b6040516200045b9190620023fa565b60405180910390f35b6200048260048036038101906200047c919062002454565b620010b4565b6040516200049191906200234b565b60405180910390f35b620004b86004803603810190620004b2919062002454565b62001132565b604051620004c791906200234b565b60405180910390f35b620004ee6004803603810190620004e8919062002634565b620011f3565b604051620004fd91906200252c565b60405180910390f35b6200052460048036038101906200051e9190620025d8565b62001275565b6040516200053391906200234b565b60405180910390f35b6200055a6004803603810190620005549190620025d8565b620012db565b005b6200057a600480360381019062000574919062002679565b62001364565b60405162000589919062002500565b60405180910390f35b5f6200059d620015b7565b620005a762001606565b81151560ca5f8573ffffffffffffffffffffffffffffffffffffffff1673ffffffffffffffffffffffffffffffffffffffff1681526020019081526020015f205f9054906101000a900460ff1615150362000639576040517f08c379a000000000000000000000000000000000000000000000000000000000815260040162000630906200271d565b60405180910390fd5b8160ca5f8573ffffffffffffffffffffffffffffffffffffffff1673ffffffffffffffffffffffffffffffffffffffff1681526020019081526020015f205f6101000a81548160ff0219169083151502179055508273ffffffffffffffffffffffffffffffffffffffff167f56734a1010e5069caf2907e922827943c0ca52a24d4106fd19de10dedd3d090f83604051620006d591906200234b565b60405180910390a26001905092915050565b606060368054620006f8906200276a565b80601f016020809104026020016040519081016040528092919081815260200182805462000726906200276a565b8015620007755780601f106200074b5761010080835404028352916020019162000775565b820191905f5260205f20905b8154815290600101906020018083116200075757829003601f168201915b5050505050905090565b5f6200078a620015b7565b60ca5f620007976200168b565b73ffffffffffffffffffffffffffffffffffffffff1673ffffffffffffffffffffffffffffffffffffffff1681526020019081526020015f205f9054906101000a900460ff161562000820576040517f08c379a00000000000000000000000000000000000000000000000000000000081526004016200081790620027ec565b60405180910390fd5b620008366200082e6200168b565b848462001692565b6001905092915050565b5f6200084b620015b7565b60c95f8473ffffffffffffffffffffffffffffffffffffffff1673ffffffffffffffffffffffffffffffffffffffff1681526020019081526020015f2082815481106200089d576200089c6200280c565b5b905f5260205f20015f9054906101000a900473ffffffffffffffffffffffffffffffffffffffff16905092915050565b5f620008d862001606565b620008e2620015b7565b60ca5f8473ffffffffffffffffffffffffffffffffffffffff1673ffffffffffffffffffffffffffffffffffffffff1681526020019081526020015f205f9054906101000a900460ff16156200096f576040517f08c379a00000000000000000000000000000000000000000000000000000000081526004016200096690620027ec565b60405180910390fd5b6200097b838362000840565b90505f620009898262000cb2565b90506200099782826200185d565b60c95f8573ffffffffffffffffffffffffffffffffffffffff1673ffffffffffffffffffffffffffffffffffffffff1681526020019081526020015f208381548110620009e957620009e86200280c565b5b905f5260205f20015f6101000a81549073ffffffffffffffffffffffffffffffffffffffff02191690558373ffffffffffffffffffffffffffffffffffffffff167f1d9af75e46cc7b38c7349e0b112fb0c07b82226489ebaf325c96f0ceea849127848360405162000a5d92919062002839565b60405180910390a25092915050565b5f603554905090565b5f62000a80620015b7565b5f62000a8b6200168b565b905060ca5f8273ffffffffffffffffffffffffffffffffffffffff1673ffffffffffffffffffffffffffffffffffffffff1681526020019081526020015f205f9054906101000a900460ff161562000b1a576040517f08c379a000000000000000000000000000000000000000000000000000000000815260040162000b1190620027ec565b60405180910390fd5b62000b2785828562001a2e565b62000b3485858562001ac1565b60019150509392505050565b5f6012905090565b5f8062000b546200168b565b905062000b7b81858562000b698589620011f3565b62000b75919062002891565b62001692565b600191505092915050565b62000b9062001606565b62000b9a62001d3f565b565b62000ba662001606565b62000bb0620015b7565b60ca5f8373ffffffffffffffffffffffffffffffffffffffff1673ffffffffffffffffffffffffffffffffffffffff1681526020019081526020015f205f9054906101000a900460ff161562000c3d576040517f08c379a000000000000000000000000000000000000000000000000000000000815260040162000c3490620027ec565b60405180910390fd5b62000c49828262001da6565b8173ffffffffffffffffffffffffffffffffffffffff167f0f6798a560793a54c3bcfe86a93cde1e73087d944c0ea20544137d41213968858260405162000c9191906200252c565b60405180910390a25050565b5f60655f9054906101000a900460ff16905090565b5f60335f8373ffffffffffffffffffffffffffffffffffffffff1673ffffffffffffffffffffffffffffffffffffffff1681526020019081526020015f20549050919050565b62000d0262001606565b62000d0d5f62001f00565b565b5f62000d1a62001606565b62000d24620015b7565b62000d30838362000840565b90505f62000d3e8262000cb2565b905062000d4d82858362001ac1565b60c95f8573ffffffffffffffffffffffffffffffffffffffff1673ffffffffffffffffffffffffffffffffffffffff1681526020019081526020015f20838154811062000d9f5762000d9e6200280c565b5b905f5260205f20015f6101000a81549073ffffffffffffffffffffffffffffffffffffffff02191690558373ffffffffffffffffffffffffffffffffffffffff167fe9b292a2b0f9a116305381f15a967535fb5a4963449b79c47b45e7add608bcb7848360405162000e1392919062002839565b60405180910390a25092915050565b5f8060019054906101000a900460ff1615905080801562000e52575060015f8054906101000a900460ff1660ff16105b8062000e82575062000e643062001fc3565b15801562000e81575060015f8054906101000a900460ff1660ff16145b5b62000ec4576040517f08c379a000000000000000000000000000000000000000000000000000000000815260040162000ebb906200293f565b60405180910390fd5b60015f806101000a81548160ff021916908360ff160217905550801562000f005760015f60016101000a81548160ff0219169083151502179055505b62000f766040518060400160405280600b81526020017f546172676574546f6b656e0000000000000000000000000000000000000000008152506040518060400160405280600481526020017f545247540000000000000000000000000000000000000000000000000000000081525062001fe5565b62000f8062002046565b801562000fdb575f8060016101000a81548160ff0219169083151502179055507f7f26b83ff96e1f2b6a682f133852f6798a09c465da95921460cefb3847402498600160405162000fd29190620029a0565b60405180910390a15b50565b62000fe862001606565b62000ff2620020a3565b565b5f60975f9054906101000a900473ffffffffffffffffffffffffffffffffffffffff16905090565b6060603780546200102d906200276a565b80601f01602080910402602001604051908101604052809291908181526020018280546200105b906200276a565b8015620010aa5780601f106200108057610100808354040283529160200191620010aa565b820191905f5260205f20905b8154815290600101906020018083116200108c57829003601f168201915b5050505050905090565b5f80620010c06200168b565b90505f620010cf8286620011f3565b90508381101562001117576040517f08c379a00000000000000000000000000000000000000000000000000000000081526004016200110e9062002a2f565b60405180910390fd5b62001126828686840362001692565b60019250505092915050565b5f6200113d620015b7565b60ca5f6200114a6200168b565b73ffffffffffffffffffffffffffffffffffffffff1673ffffffffffffffffffffffffffffffffffffffff1681526020019081526020015f205f9054906101000a900460ff1615620011d3576040517f08c379a0000000000000000000000000000000000000000000000000000000008152600401620011ca90620027ec565b60405180910390fd5b620011e9620011e16200168b565b848462001ac1565b6001905092915050565b5f60345f8473ffffffffffffffffffffffffffffffffffffffff1673ffffffffffffffffffffffffffffffffffffffff1681526020019081526020015f205f8373ffffffffffffffffffffffffffffffffffffffff1673ffffffffffffffffffffffffffffffffffffffff1681526020019081526020015f2054905092915050565b5f62001280620015b7565b6200128a62001606565b60ca5f8373ffffffffffffffffffffffffffffffffffffffff1673ffffffffffffffffffffffffffffffffffffffff1681526020019081526020015f205f9054906101000a900460ff169050919050565b620012e562001606565b5f73ffffffffffffffffffffffffffffffffffffffff168173ffffffffffffffffffffffffffffffffffffffff160362001356576040517f08c379a00000000000000000000000000000000000000000000000000000000081526004016200134d9062002ac3565b60405180910390fd5b620013618162001f00565b50565b5f6200136f620015b7565b60ca5f6200137c6200168b565b73ffffffffffffffffffffffffffffffffffffffff1673ffffffffffffffffffffffffffffffffffffffff1681526020019081526020015f205f9054906101000a900460ff161562001405576040517f08c379a0000000000000000000000000000000000000000000000000000000008152600401620013fc90620027ec565b60405180910390fd5b6200140f6200168b565b6040516200141d9062002248565b62001429919062002619565b604051809103905ff08015801562001443573d5f803e3d5ffd5b5090506200145c620014546200168b565b828462001ac1565b60c95f620014696200168b565b73ffffffffffffffffffffffffffffffffffffffff1673ffffffffffffffffffffffffffffffffffffffff1681526020019081526020015f2081908060018154018082558091505060019003905f5260205f20015f9091909190916101000a81548173ffffffffffffffffffffffffffffffffffffffff021916908373ffffffffffffffffffffffffffffffffffffffff1602179055506200150a6200168b565b73ffffffffffffffffffffffffffffffffffffffff167f7281a63618af50f250eb3256c1ad8fd585a43b04dd6d2b01f6324c0143a8f9a2600160c95f620015506200168b565b73ffffffffffffffffffffffffffffffffffffffff1673ffffffffffffffffffffffffffffffffffffffff1681526020019081526020015f208054905062001599919062002ae3565b84604051620015aa92919062002839565b60405180910390a2919050565b620015c162000c9d565b1562001604576040517f08c379a0000000000000000000000000000000000000000000000000000000008152600401620015fb9062002b6b565b60405180910390fd5b565b620016106200168b565b73ffffffffffffffffffffffffffffffffffffffff166200163062000ff4565b73ffffffffffffffffffffffffffffffffffffffff161462001689576040517f08c379a0000000000000000000000000000000000000000000000000000000008152600401620016809062002bd9565b60405180910390fd5b565b5f33905090565b5f73ffffffffffffffffffffffffffffffffffffffff168373ffffffffffffffffffffffffffffffffffffffff160362001703576040517f08c379a0000000000000000000000000000000000000000000000000000000008152600401620016fa9062002c6d565b60405180910390fd5b5f73ffffffffffffffffffffffffffffffffffffffff168273ffffffffffffffffffffffffffffffffffffffff160362001774576040517f08c379a00000000000000000000000000000000000000000000000000000000081526004016200176b9062002d01565b60405180910390fd5b8060345f8573ffffffffffffffffffffffffffffffffffffffff1673ffffffffffffffffffffffffffffffffffffffff1681526020019081526020015f205f8473ffffffffffffffffffffffffffffffffffffffff1673ffffffffffffffffffffffffffffffffffffffff1681526020019081526020015f20819055508173ffffffffffffffffffffffffffffffffffffffff168373ffffffffffffffffffffffffffffffffffffffff167f8c5be1e5ebec7d5bd14f71427d1e84f3dd0314c0f7b2291e5b200ac8c7c3b925836040516200185091906200252c565b60405180910390a3505050565b5f73ffffffffffffffffffffffffffffffffffffffff168273ffffffffffffffffffffffffffffffffffffffff1603620018ce576040517f08c379a0000000000000000000000000000000000000000000000000000000008152600401620018c59062002d95565b60405180910390fd5b620018db825f836200210b565b5f60335f8473ffffffffffffffffffffffffffffffffffffffff1673ffffffffffffffffffffffffffffffffffffffff1681526020019081526020015f205490508181101562001962576040517f08c379a0000000000000000000000000000000000000000000000000000000008152600401620019599062002e29565b60405180910390fd5b81810360335f8573ffffffffffffffffffffffffffffffffffffffff1673ffffffffffffffffffffffffffffffffffffffff1681526020019081526020015f20819055508160355f82825403925050819055505f73ffffffffffffffffffffffffffffffffffffffff168373ffffffffffffffffffffffffffffffffffffffff167fddf252ad1be2c89b69c2b068fc378daa952ba7f163c4a11628f55a4df523b3ef8460405162001a1491906200252c565b60405180910390a362001a29835f8462002110565b505050565b5f62001a3b8484620011f3565b90507fffffffffffffffffffffffffffffffffffffffffffffffffffffffffffffffff811462001abb578181101562001aab576040517f08c379a000000000000000000000000000000000000000000000000000000000815260040162001aa29062002e97565b60405180910390fd5b62001aba848484840362001692565b5b50505050565b5f73ffffffffffffffffffffffffffffffffffffffff168373ffffffffffffffffffffffffffffffffffffffff160362001b32576040517f08c379a000000000000000000000000000000000000000000000000000000000815260040162001b299062002f2b565b60405180910390fd5b5f73ffffffffffffffffffffffffffffffffffffffff168273ffffffffffffffffffffffffffffffffffffffff160362001ba3576040517f08c379a000000000000000000000000000000000000000000000000000000000815260040162001b9a9062002fbf565b60405180910390fd5b62001bb08383836200210b565b5f60335f8573ffffffffffffffffffffffffffffffffffffffff1673ffffffffffffffffffffffffffffffffffffffff1681526020019081526020015f205490508181101562001c37576040517f08c379a000000000000000000000000000000000000000000000000000000000815260040162001c2e9062003053565b60405180910390fd5b81810360335f8673ffffffffffffffffffffffffffffffffffffffff1673ffffffffffffffffffffffffffffffffffffffff1681526020019081526020015f20819055508160335f8573ffffffffffffffffffffffffffffffffffffffff1673ffffffffffffffffffffffffffffffffffffffff1681526020019081526020015f205f82825401925050819055508273ffffffffffffffffffffffffffffffffffffffff168473ffffffffffffffffffffffffffffffffffffffff167fddf252ad1be2c89b69c2b068fc378daa952ba7f163c4a11628f55a4df523b3ef8460405162001d2491906200252c565b60405180910390a362001d3984848462002110565b50505050565b62001d4962002115565b5f60655f6101000a81548160ff0219169083151502179055507f5db9ee0a495bf2e6ff9c91a7834c1ba4fdd244a5e8aa4e537bd38aeae4b073aa62001d8d6200168b565b60405162001d9c919062002619565b60405180910390a1565b5f73ffffffffffffffffffffffffffffffffffffffff168273ffffffffffffffffffffffffffffffffffffffff160362001e17576040517f08c379a000000000000000000000000000000000000000000000000000000000815260040162001e0e90620030c1565b60405180910390fd5b62001e245f83836200210b565b8060355f82825462001e37919062002891565b925050819055508060335f8473ffffffffffffffffffffffffffffffffffffffff1673ffffffffffffffffffffffffffffffffffffffff1681526020019081526020015f205f82825401925050819055508173ffffffffffffffffffffffffffffffffffffffff165f73ffffffffffffffffffffffffffffffffffffffff167fddf252ad1be2c89b69c2b068fc378daa952ba7f163c4a11628f55a4df523b3ef8360405162001ee791906200252c565b60405180910390a362001efc5f838362002110565b5050565b5f60975f9054906101000a900473ffffffffffffffffffffffffffffffffffffffff1690508160975f6101000a81548173ffffffffffffffffffffffffffffffffffffffff021916908373ffffffffffffffffffffffffffffffffffffffff1602179055508173ffffffffffffffffffffffffffffffffffffffff168173ffffffffffffffffffffffffffffffffffffffff167f8be0079c531659141344cd1fd0a4f28419497f9722a3daafe3b4186f6b6457e060405160405180910390a35050565b5f808273ffffffffffffffffffffffffffffffffffffffff163b119050919050565b5f60019054906101000a900460ff1662002036576040517f08c379a00000000000000000000000000000000000000000000000000000000081526004016200202d9062003155565b60405180910390fd5b62002042828262002163565b5050565b5f60019054906101000a900460ff1662002097576040517f08c379a00000000000000000000000000000000000000000000000000000000081526004016200208e9062003155565b60405180910390fd5b620020a1620021dc565b565b620020ad620015b7565b600160655f6101000a81548160ff0219169083151502179055507f62e78cea01bee320cd4e420270b5ea74000d11b0c9f74754ebdbfc544b05a258620020f26200168b565b60405162002101919062002619565b60405180910390a1565b505050565b505050565b6200211f62000c9d565b62002161576040517f08c379a00000000000000000000000000000000000000000000000000000000081526004016200215890620031c3565b60405180910390fd5b565b5f60019054906101000a900460ff16620021b4576040517f08c379a0000000000000000000000000000000000000000000000000000000008152600401620021ab9062003155565b60405180910390fd5b8160369081620021c59190620033ca565b508060379081620021d79190620033ca565b505050565b5f60019054906101000a900460ff166200222d576040517f08c379a0000000000000000000000000000000000000000000000000000000008152600401620022249062003155565b60405180910390fd5b5f60655f6101000a81548160ff021916908315150217905550565b6101fa80620034af83390190565b5f80fd5b5f73ffffffffffffffffffffffffffffffffffffffff82169050919050565b5f62002285826200225a565b9050919050565b620022978162002279565b8114620022a2575f80fd5b50565b5f81359050620022b5816200228c565b92915050565b5f8115159050919050565b620022d181620022bb565b8114620022dc575f80fd5b50565b5f81359050620022ef81620022c6565b92915050565b5f80604083850312156200230e576200230d62002256565b5b5f6200231d85828601620022a5565b92505060206200233085828601620022df565b9150509250929050565b6200234581620022bb565b82525050565b5f602082019050620023605f8301846200233a565b92915050565b5f81519050919050565b5f82825260208201905092915050565b5f5b838110156200239f57808201518184015260208101905062002382565b5f8484015250505050565b5f601f19601f8301169050919050565b5f620023c68262002366565b620023d2818562002370565b9350620023e481856020860162002380565b620023ef81620023aa565b840191505092915050565b5f6020820190508181035f830152620024148184620023ba565b905092915050565b5f819050919050565b62002430816200241c565b81146200243b575f80fd5b50565b5f813590506200244e8162002425565b92915050565b5f80604083850312156200246d576200246c62002256565b5b5f6200247c85828601620022a5565b92505060206200248f858286016200243e565b9150509250929050565b5f819050919050565b5f620024c2620024bc620024b6846200225a565b62002499565b6200225a565b9050919050565b5f620024d582620024a2565b9050919050565b5f620024e882620024c9565b9050919050565b620024fa81620024dc565b82525050565b5f602082019050620025155f830184620024ef565b92915050565b62002526816200241c565b82525050565b5f602082019050620025415f8301846200251b565b92915050565b5f805f6060848603121562002561576200256062002256565b5b5f6200257086828701620022a5565b93505060206200258386828701620022a5565b925050604062002596868287016200243e565b9150509250925092565b5f60ff82169050919050565b620025b781620025a0565b82525050565b5f602082019050620025d25f830184620025ac565b92915050565b5f60208284031215620025f057620025ef62002256565b5b5f620025ff84828501620022a5565b91505092915050565b620026138162002279565b82525050565b5f6020820190506200262e5f83018462002608565b92915050565b5f80604083850312156200264d576200264c62002256565b5b5f6200265c85828601620022a5565b92505060206200266f85828601620022a5565b9150509250929050565b5f6020828403121562002691576200269062002256565b5b5f620026a0848285016200243e565b91505092915050565b7f746865206163636f756e7420626c6f636b6164652069732063757272656e746c5f8201527f7920696e20746869732073746174650000000000000000000000000000000000602082015250565b5f62002705602f8362002370565b91506200271282620026a9565b604082019050919050565b5f6020820190508181035f8301526200273681620026f7565b9050919050565b7f4e487b71000000000000000000000000000000000000000000000000000000005f52602260045260245ffd5b5f60028204905060018216806200278257607f821691505b6020821081036200279857620027976200273d565b5b50919050565b7f6163636f756e7420697320626c6f636b656400000000000000000000000000005f82015250565b5f620027d460128362002370565b9150620027e1826200279e565b602082019050919050565b5f6020820190508181035f8301526200280581620027c6565b9050919050565b7f4e487b71000000000000000000000000000000000000000000000000000000005f52603260045260245ffd5b5f6040820190506200284e5f8301856200251b565b6200285d60208301846200251b565b9392505050565b7f4e487b71000000000000000000000000000000000000000000000000000000005f52601160045260245ffd5b5f6200289d826200241c565b9150620028aa836200241c565b9250828201905080821115620028c557620028c462002864565b5b92915050565b7f496e697469616c697a61626c653a20636f6e747261637420697320616c7265615f8201527f647920696e697469616c697a6564000000000000000000000000000000000000602082015250565b5f62002927602e8362002370565b91506200293482620028cb565b604082019050919050565b5f6020820190508181035f830152620029588162002919565b9050919050565b5f819050919050565b5f62002988620029826200297c846200295f565b62002499565b620025a0565b9050919050565b6200299a8162002968565b82525050565b5f602082019050620029b55f8301846200298f565b92915050565b7f45524332303a2064656372656173656420616c6c6f77616e63652062656c6f775f8201527f207a65726f000000000000000000000000000000000000000000000000000000602082015250565b5f62002a1760258362002370565b915062002a2482620029bb565b604082019050919050565b5f6020820190508181035f83015262002a488162002a09565b9050919050565b7f4f776e61626c653a206e6577206f776e657220697320746865207a65726f20615f8201527f6464726573730000000000000000000000000000000000000000000000000000602082015250565b5f62002aab60268362002370565b915062002ab88262002a4f565b604082019050919050565b5f6020820190508181035f83015262002adc8162002a9d565b9050919050565b5f62002aef826200241c565b915062002afc836200241c565b925082820390508181111562002b175762002b1662002864565b5b92915050565b7f5061757361626c653a20706175736564000000000000000000000000000000005f82015250565b5f62002b5360108362002370565b915062002b608262002b1d565b602082019050919050565b5f6020820190508181035f83015262002b848162002b45565b9050919050565b7f4f776e61626c653a2063616c6c6572206973206e6f7420746865206f776e65725f82015250565b5f62002bc160208362002370565b915062002bce8262002b8b565b602082019050919050565b5f6020820190508181035f83015262002bf28162002bb3565b9050919050565b7f45524332303a20617070726f76652066726f6d20746865207a65726f206164645f8201527f7265737300000000000000000000000000000000000000000000000000000000602082015250565b5f62002c5560248362002370565b915062002c628262002bf9565b604082019050919050565b5f6020820190508181035f83015262002c868162002c47565b9050919050565b7f45524332303a20617070726f766520746f20746865207a65726f2061646472655f8201527f7373000000000000000000000000000000000000000000000000000000000000602082015250565b5f62002ce960228362002370565b915062002cf68262002c8d565b604082019050919050565b5f6020820190508181035f83015262002d1a8162002cdb565b9050919050565b7f45524332303a206275726e2066726f6d20746865207a65726f206164647265735f8201527f7300000000000000000000000000000000000000000000000000000000000000602082015250565b5f62002d7d60218362002370565b915062002d8a8262002d21565b604082019050919050565b5f6020820190508181035f83015262002dae8162002d6f565b9050919050565b7f45524332303a206275726e20616d6f756e7420657863656564732062616c616e5f8201527f6365000000000000000000000000000000000000000000000000000000000000602082015250565b5f62002e1160228362002370565b915062002e1e8262002db5565b604082019050919050565b5f6020820190508181035f83015262002e428162002e03565b9050919050565b7f45524332303a20696e73756666696369656e7420616c6c6f77616e63650000005f82015250565b5f62002e7f601d8362002370565b915062002e8c8262002e49565b602082019050919050565b5f6020820190508181035f83015262002eb08162002e71565b9050919050565b7f45524332303a207472616e736665722066726f6d20746865207a65726f2061645f8201527f6472657373000000000000000000000000000000000000000000000000000000602082015250565b5f62002f1360258362002370565b915062002f208262002eb7565b604082019050919050565b5f6020820190508181035f83015262002f448162002f05565b9050919050565b7f45524332303a207472616e7366657220746f20746865207a65726f20616464725f8201527f6573730000000000000000000000000000000000000000000000000000000000602082015250565b5f62002fa760238362002370565b915062002fb48262002f4b565b604082019050919050565b5f6020820190508181035f83015262002fd88162002f99565b9050919050565b7f45524332303a207472616e7366657220616d6f756e74206578636565647320625f8201527f616c616e63650000000000000000000000000000000000000000000000000000602082015250565b5f6200303b60268362002370565b9150620030488262002fdf565b604082019050919050565b5f6020820190508181035f8301526200306c816200302d565b9050919050565b7f45524332303a206d696e7420746f20746865207a65726f2061646472657373005f82015250565b5f620030a9601f8362002370565b9150620030b68262003073565b602082019050919050565b5f6020820190508181035f830152620030da816200309b565b9050919050565b7f496e697469616c697a61626c653a20636f6e7472616374206973206e6f7420695f8201527f6e697469616c697a696e67000000000000000000000000000000000000000000602082015250565b5f6200313d602b8362002370565b91506200314a82620030e1565b604082019050919050565b5f6020820190508181035f8301526200316e816200312f565b9050919050565b7f5061757361626c653a206e6f74207061757365640000000000000000000000005f82015250565b5f620031ab60148362002370565b9150620031b88262003175565b602082019050919050565b5f6020820190508181035f830152620031dc816200319d565b9050919050565b7f4e487b71000000000000000000000000000000000000000000000000000000005f52604160045260245ffd5b5f819050815f5260205f209050919050565b5f6020601f8301049050919050565b5f82821b905092915050565b5f600883026200326e7fffffffffffffffffffffffffffffffffffffffffffffffffffffffffffffffff8262003231565b6200327a868362003231565b95508019841693508086168417925050509392505050565b5f620032b2620032ac620032a6846200241c565b62002499565b6200241c565b9050919050565b5f819050919050565b620032cd8362003292565b620032e5620032dc82620032b9565b8484546200323d565b825550505050565b5f90565b620032fb620032ed565b62003308818484620032c2565b505050565b5b818110156200332f57620033235f82620032f1565b6001810190506200330e565b5050565b601f8211156200337e57620033488162003210565b620033538462003222565b8101602085101562003363578190505b6200337b620033728562003222565b8301826200330d565b50505b505050565b5f82821c905092915050565b5f620033a05f198460080262003383565b1980831691505092915050565b5f620033ba83836200338f565b9150826002028217905092915050565b620033d58262002366565b67ffffffffffffffff811115620033f157620033f0620031e3565b5b620033fd82546200276a565b6200340a82828562003333565b5f60209050601f83116001811462003440575f84156200342b578287015190505b620034378582620033ad565b865550620034a6565b601f198416620034508662003210565b5f5b82811015620034795784890151825560018201915060208501945060208101905062003452565b8683101562003499578489015162003495601f8916826200338f565b8355505b6001600288020188555050505b50505050505056fe608060405234801561000f575f80fd5b506040516101fa3803806101fa833981810160405281019061003191906100d4565b805f806101000a81548173ffffffffffffffffffffffffffffffffffffffff021916908373ffffffffffffffffffffffffffffffffffffffff160217905550506100ff565b5f80fd5b5f73ffffffffffffffffffffffffffffffffffffffff82169050919050565b5f6100a38261007a565b9050919050565b6100b381610099565b81146100bd575f80fd5b50565b5f815190506100ce816100aa565b92915050565b5f602082840312156100e9576100e8610076565b5b5f6100f6848285016100c0565b91505092915050565b60ef8061010b5f395ff3fe6080604052348015600e575f80fd5b50600436106026575f3560e01c806302d05d3f14602a575b5f80fd5b60306044565b604051603b919060a2565b60405180910390f35b5f8054906101000a900473ffffffffffffffffffffffffffffffffffffffff1681565b5f73ffffffffffffffffffffffffffffffffffffffff82169050919050565b5f608e826067565b9050919050565b609c816086565b82525050565b5f60208201905060b35f8301846095565b9291505056fea26469706673582212205a654603b8c35457c03169616f4bdcd99069730018210c6fbe2001f06a8a105564736f6c63430008150033a2646970667358221220850bb1a0f7e714d166035fcebda153dc9ea39a16dc00b2e85fd9e6d632281f7764736f6c63430008150033",
  "linkReferences": {},
  "deployedLinkReferences": {}
}